:020000040800F2
:10000000001800209D0800081D0900081D090008AF
:1000100000000000000000000000000000000000E0
:100020000000000000000000000000001D090008A2
:1000300000000000000000001D09000885080008FD
:100040001D090008000000001D0900081D09000826
:100050001D0900081D0900081D0900081D090008E8
:1000600000000000490800081D0900081D090008DB
:100070003D0800081D0900081D09000800000000D7
:100080001D09000800000000000000001D09000814
:10009000000000001D0900081D0900081D090008D6
:1000A000000000001D090008000000001D090008F4
:1000B0001D09000800000000000000001D090008E4
:1000C00010B5064C2378002B07D1054B002B02D02E
:1000D000044800E000BF0123237010BD0000002091
:1000E0000000000068090008044B10B5002B03D085
:1000F0000349044800E000BF10BDC04600000000F6
:10010000040000206809000803460B437FD4002246
:1001100043088B4274D303098B425FD3030A8B429B
:1001200044D3030B8B4228D3030C8B420DD3FF2205
:10013000090212BA030C8B4202D31212090265D0D3
:10014000030B8B4219D300E0090AC30B8B4201D386
:10015000CB03C01A5241830B8B4201D38B03C01ACD
:100160005241430B8B4201D34B03C01A5241030B44
:100170008B4201D30B03C01A5241C30A8B4201D3F5
:10018000CB02C01A5241830A8B4201D38B02C01AA0
:100190005241430A8B4201D34B02C01A5241030A17
:1001A0008B4201D30B02C01A5241CDD2C3098B42FC
:1001B00001D3CB01C01A524183098B4201D38B0179
:1001C000C01A524143098B4201D34B01C01A52411C
:1001D00003098B4201D30B01C01A5241C3088B4261
:1001E00001D3CB00C01A524183088B4201D38B004C
:1001F000C01A524143088B4201D34B00C01A5241EE
:10020000411A00D201465241104670475DE0CA0FC4
:1002100000D04942031000D34042534000229C4684
:1002200003098B422DD3030A8B4212D3FC2289018E
:1002300012BA030A8B420CD3890192118B4208D364
:10024000890192118B4204D389013AD0921100E0C6
:100250008909C3098B4201D3CB01C01A52418309DA
:100260008B4201D38B01C01A524143098B4201D307
:100270004B01C01A524103098B4201D30B01C01A32
:100280005241C3088B4201D3CB00C01A52418308AC
:100290008B4201D38B00C01A5241D9D243088B4202
:1002A00001D34B00C01A5241411A00D201466346A5
:1002B00052415B10104601D34042002B00D5494209
:1002C000704763465B1000D3404201B5002000F048
:1002D00005F802BD0029F8D016E770477047C04600
:1002E00080B582B000AF0200FB1D1A70FB1D1B78A9
:1002F0007F2B09D8FB1D1B781A001F231A40044BC3
:10030000012191400A001A60C046BD4602B080BD7E
:1003100000E100E090B583B000AF02003960FB1D42
:100320001A70FB1D1B787F2B28D82F4AFB1D1B78CA
:100330005BB29B08C0339B009B58FA1D12781100DA
:1003400003220A40D200FF2191400A00D2431A4002
:1003500011003B689B01FF221A40FB1D1B7818000F
:1003600003230340DB009A401F48FB1D1B785BB250
:100370009B080A43C0339B001A5031E01B4AFB1D07
:100380001B7819000F230B40083B9B0806339B008A
:10039000D31804331B68FA1D1278110003220A4097
:1003A000D200FF2191400A00D2431A4011003B685D
:1003B0009B01FF221A40FB1D1B78180003230340FA
:1003C000DB009A400948FB1D1B781C000F232340CB
:1003D000083B9B080A4306339B00C31804331A608A
:1003E000C046BD4603B090BD00E100E000ED00E076
:1003F00080B582B000AF78607B68013B0C4A9342C5
:1004000001D9012310E00B4B7A68013A5A600123AD
:100410005B4203211800FFF77DFF064B00229A6024
:10042000044B07221A6000231800BD4602B080BDAD
:10043000FFFFFF0010E000E080B582B000AF00F0E9
:10044000E1F800F00BF900F06BF900F0A3F91B4B99
:100450009A681A4B04210A439A60194B1B687B6007
:10046000174B1B683B60164B1A687B68D21AFA233D
:100470005B009A4208D9124B1B687B60114B5A698A
:10048000104B02214A405A610D4B1A683B68D31A3F
:10049000052BE8D90A4B1B683B600B4B1B881A00E5
:1004A000C823534309491800FFF72EFE03009BB2EF
:1004B00032339AB2064B5A63D5E7C0460024014056
:1004C0001C0000200004004820000020FF0F000056
:1004D0000048014080B500AF444B1A68434B1021DF
:1004E0000A431A60424B9A69414B01210A439A61BF
:1004F0003F4BDA693E4B802149050A43DA613B4BA9
:100500001B680122134005D1384B1A68374B012173
:100510000A431A60364B1A6880235B021A40802314
:100520005B029A420DD0324B1A68314B802149024E
:100530000A431A60C0462E4B1A6880239B02134060
:10054000F9D02B4B5B680C221340082B26D0284B8C
:100550001A68274B27490A401A60C046244B1A687C
:1005600080239B041340F9D1214B0022DA62204BF7
:100570005B68214A1A401E4BA42189030A435A6032
:100580001B4B1A681A4B802149040A431A60C04663
:10059000174B1A6880239B041340F9D0144B5A68F8
:1005A000134B16490A405A60114B5B680322934370
:1005B0001A000F4B02210A435A60C0460C4B5B687D
:1005C0000C221340082BF9D10D4B1800FFF710FF38
:1005D00001235B4200211800FFF79CFE01235B42D0
:1005E0001800FFF77DFEC046BD4680BD00200240DA
:1005F00000100240FFFFFFFEFF7FC2FF0FF8FFFF6A
:1006000080BB000080B500AF124B5A69114BC0216E
:10061000C9020A435A61104B1B680C2293431A000B
:100620000D4B04210A431A600B4B5A680A4B0221F6
:100630008A435A60084B9A68074B0C218A439A6098
:10064000054BDA68044B0C218A43DA60C046BD468C
:1006500080BDC046001002400004004880B500AFD5
:100660002B4B9A692A4B802189000A439A61294BB6
:100670001B699B009A08274B802109060A431A61CF
:10068000244B9B680122134005D0224B9A68214BD2
:1006900001218A439A601F4B9A681E4B80210906EC
:1006A0000A439A60C0461B4B9B68002BFBDB9023E0
:1006B000DB051A689023DB050F210A431A60154BEE
:1006C0009A68144B01210A439A60C046114B1B687B
:1006D00001221340FAD00F4BDA680E4BC02189017A
:1006E0000A43DA600B4B9A6A0A4B0B490A439A6237
:1006F000084B5A69074B07210A435A61074B1A688E
:10070000064BC02109040A431A60C046BD4680BD9D
:1007100000100240002401400300030008270140AC
:1007200080B500AF154B5A69144B01210A435A6139
:10073000134BDA68124B03210A43DA60114B124A59
:100740009A60104B114ADA600E4B04225A600D4B2E
:100750001A680C4B0E490A431A600A4B1A68094B77
:1007600001210A431A600920FFF7BAFD012109207F
:10077000FFF7D0FDC046BD4680BDC0460010024018
:1007800000240140080002404024014020000020D5
:10079000AA05000080B500AF254B9A69244B802143
:1007A000C9020A439A619023DB051B68214A1A405B
:1007B0009023DB05802109020A431A609023DB05A0
:1007C0009A689023DB05C02109020A439A609023AE
:1007D000DB051A6A9023DB05A021C9050A431A62CA
:1007E000154BE022FF329A62134BFA22D200DA62F2
:1007F000114B96225A63104B9A690F4B68210A439A
:100800009A610D4B1A6A0C4B01210A431A620A4B7A
:100810005A6C094B802109020A435A64064B1A6834
:10082000054B81210A431A60C046BD4680BDC046C3
:1008300000100240FF3FFFFF0048014080B500AFBD
:10084000C046BD4680BD000080B500AF0C4B1B68A4
:100850000822134005D00A4B5A68094B08210A4365
:100860005A60074B1B680222134005D0044B5A689C
:10087000034B02210A435A60C046BD4680BDC046B4
:100880000000024080B500AF034B1B685A1C024BAE
:100890001A60C046BD4680BD1C0000201348854636
:1008A00013480168090E134A914205D112481349B1
:1008B000016013481349016013481449144A002386
:1008C00002E0D458C4500433C4188C42F9D3114AFE
:1008D000114C002301E013600432A242FBD3FFF766
:1008E000F9FD00F01DF8FFF7A7FDFEE70018002056
:1008F000040000001F00000018100240010000006A
:100900000000014000000000000000200000002066
:10091000880900080000002028000020FEE70000F1
:1009200070B500260C4D0D4C641BA410A64209D1D5
:10093000002600F019F80A4D0A4C641BA410A642C8
:1009400005D170BDB300EB5898470136EEE7B30010
:10095000EB5898470136F2E7800900088009000843
:100960008009000884090008F8B5C046F8BC08BC36
:100970009E467047F8B5C046F8BC08BC9E46704716
:04098000E900000882
:04098400C1000008A6
:040000050800089D4A
:00000001FF
