:020000040800F2
:100000000018002039040008B9040008B9040008E9
:1000100000000000000000000000000000000000E0
:10002000000000000000000000000000B90400080B
:100030000000000000000000B904000821040008CE
:10004000B904000800000000B9040008B904000861
:10005000B9040008B9040008B9040008B90400088C
:1000600000000000B9040008B9040008B904000841
:10007000B9040008B9040008B90400080000000031
:10008000B90400080000000000000000B9040008E6
:1000900000000000B9040008B9040008B904000811
:1000A00000000000B904000800000000B9040008C6
:1000B000B90400080000000000000000B9040008B6
:1000C00010B5064C2378002B07D1054B002B02D02E
:1000D000044800E000BF0123237010BD0000002091
:1000E0000000000004050008044B10B5002B03D0ED
:1000F0000349044800E000BF10BDC04600000000F6
:10010000040000200405000880B582B000AF0200A2
:10011000FB1D1A70FB1D1B787F2B09D8FB1D1B785C
:100120001A001F231A40044B012191400A001A6053
:10013000C046BD4602B080BD00E100E090B583B08E
:1001400000AF02003960FB1D1A70FB1D1B787F2B6E
:1001500028D82F4AFB1D1B785BB29B08C0339B003D
:100160009B58FA1D1278110003220A40D200FF2189
:1001700091400A00D2431A4011003B689B01FF22C4
:100180001A40FB1D1B78180003230340DB009A4034
:100190001F48FB1D1B785BB29B080A43C0339B00C2
:1001A0001A5031E01B4AFB1D1B7819000F230B402E
:1001B000083B9B0806339B00D31804331B68FA1DC9
:1001C0001278110003220A40D200FF2191400A0058
:1001D000D2431A4011003B689B01FF221A40FB1DCD
:1001E0001B78180003230340DB009A400948FB1DDD
:1001F0001B781C000F232340083B9B080A4306334F
:100200009B00C31804331A60C046BD4603B090BDBE
:1002100000E100E000ED00E080B582B000AF786062
:100220007B68013B0C4A934201D9012310E00B4B40
:100230007A68013A5A6001235B4203211800FFF7F4
:100240007DFF064B00229A60044B07221A600023B0
:100250001800BD4602B080BDFFFFFF0010E000E0C7
:1002600080B582B000AF00F0AFF8094B1B687B602F
:10027000074B1A687B68D31A642BF9D9044B1B68A7
:100280007B60044B5A69034B02214A405A61EFE7F5
:100290001C0000200004004880B500AF444B1A68E1
:1002A000434B10210A431A60424B9A69414B01218A
:1002B0000A439A613F4BDA693E4B802149050A4364
:1002C000DA613B4B1B680122134005D1384B1A6899
:1002D000374B01210A431A60364B1A6880235B02B0
:1002E0001A4080235B029A420DD0324B1A68314B80
:1002F000802149020A431A60C0462E4B1A688023A7
:100300009B021340F9D02B4B5B680C221340082B47
:1003100026D0284B1A68274B27490A401A60C04646
:10032000244B1A6880239B041340F9D1214B0022EF
:10033000DA62204B5B68214A1A401E4BA4218903D4
:100340000A435A601B4B1A681A4B802149040A431E
:100350001A60C046174B1A6880239B041340F9D0DB
:10036000144B5A68134B16490A405A60114B5B688C
:10037000032293431A000F4B02210A435A60C046DE
:100380000C4B5B680C221340082BF9D10D4B180065
:10039000FFF742FF01235B4200211800FFF7CEFE6A
:1003A00001235B421800FFF7AFFEC046BD4680BD8B
:1003B0000020024000100240FFFFFFFEFF7FC2FF4F
:1003C0000FF8FFFF80BB000080B500AF124B5A69E9
:1003D000114BC021C9020A435A61104B1B680C2201
:1003E00093431A000D4B04210A431A600B4B5A68C1
:1003F0000A4B02218A435A60084B9A68074B0C212A
:100400008A439A60054BDA68044B0C218A43DA6010
:10041000C046BD4680BDC0460010024000040048F2
:1004200080B500AF034B1B685A1C024B1A60C046D4
:10043000BD4680BD1C000020134885461348016856
:10044000090E134A914205D112481349016013481D
:100450001349016013481449144A002302E0D45898
:10046000C4500433C4188C42F9D3114A114C0023F0
:1004700001E013600432A242FBD3FFF70DFF00F04E
:100480001DF8FFF7EDFEFEE7001800200400000055
:100490001F00000018100240010000000000014091
:1004A00000000000000000200000002024050008DB
:1004B0000000002020000020FEE7000070B50026AC
:1004C0000C4D0D4C641BA410A64209D1002600F06F
:1004D00019F80A4D0A4C641BA410A64205D170BD40
:1004E000B300EB5898470136EEE7B300EB58984756
:1004F0000136F2E71C0500081C0500081C05000871
:1005000020050008F8B5C046F8BC08BC9E467047F8
:0C051000F8B5C046F8BC08BC9E46704719
:04051C00E9000008EA
:04052000C10000080E
:0400000508000439B2
:00000001FF
